{
  "contractName": "v2v",
  "abi": [
    {
      "inputs": [],
      "stateMutability": "nonpayable",
      "type": "constructor"
    },
    {
      "inputs": [
        {
          "internalType": "address",
          "name": "",
          "type": "address"
        }
      ],
      "name": "Evs",
      "outputs": [
        {
          "internalType": "uint256",
          "name": "ID",
          "type": "uint256"
        },
        {
          "internalType": "address",
          "name": "uAdd",
          "type": "address"
        },
        {
          "internalType": "uint256",
          "name": "pKey",
          "type": "uint256"
        },
        {
          "internalType": "string",
          "name": "certi",
          "type": "string"
        },
        {
          "internalType": "uint256",
          "name": "NC",
          "type": "uint256"
        },
        {
          "internalType": "uint256",
          "name": "T_exp",
          "type": "uint256"
        },
        {
          "internalType": "bool",
          "name": "status",
          "type": "bool"
        }
      ],
      "stateMutability": "view",
      "type": "function",
      "constant": true
    },
    {
      "inputs": [
        {
          "internalType": "address",
          "name": "",
          "type": "address"
        }
      ],
      "name": "Rsu",
      "outputs": [
        {
          "internalType": "uint256",
          "name": "ID",
          "type": "uint256"
        },
        {
          "internalType": "address",
          "name": "uAdd",
          "type": "address"
        },
        {
          "internalType": "uint256",
          "name": "pKey",
          "type": "uint256"
        },
        {
          "internalType": "string",
          "name": "certi",
          "type": "string"
        },
        {
          "internalType": "string",
          "name": "h_rps",
          "type": "string"
        },
        {
          "internalType": "string",
          "name": "C_t",
          "type": "string"
        },
        {
          "internalType": "uint256",
          "name": "T_exp",
          "type": "uint256"
        },
        {
          "internalType": "bool",
          "name": "status",
          "type": "bool"
        }
      ],
      "stateMutability": "view",
      "type": "function",
      "constant": true
    },
    {
      "inputs": [],
      "name": "TA",
      "outputs": [
        {
          "internalType": "address",
          "name": "",
          "type": "address"
        }
      ],
      "stateMutability": "view",
      "type": "function",
      "constant": true
    },
    {
      "inputs": [],
      "name": "evCount",
      "outputs": [
        {
          "internalType": "uint256",
          "name": "",
          "type": "uint256"
        }
      ],
      "stateMutability": "view",
      "type": "function",
      "constant": true
    },
    {
      "inputs": [],
      "name": "rsuCount",
      "outputs": [
        {
          "internalType": "uint256",
          "name": "",
          "type": "uint256"
        }
      ],
      "stateMutability": "view",
      "type": "function",
      "constant": true
    },
    {
      "inputs": [
        {
          "internalType": "uint256",
          "name": "_ID",
          "type": "uint256"
        },
        {
          "internalType": "address",
          "name": "_uAdd",
          "type": "address"
        },
        {
          "internalType": "uint256",
          "name": "_pKey",
          "type": "uint256"
        },
        {
          "internalType": "string",
          "name": "_certi",
          "type": "string"
        },
        {
          "internalType": "uint256",
          "name": "_NC",
          "type": "uint256"
        },
        {
          "internalType": "uint256",
          "name": "_T_exp",
          "type": "uint256"
        },
        {
          "internalType": "bool",
          "name": "_status",
          "type": "bool"
        }
      ],
      "name": "registerEV",
      "outputs": [],
      "stateMutability": "nonpayable",
      "type": "function"
    },
    {
      "inputs": [
        {
          "internalType": "uint256",
          "name": "_ID",
          "type": "uint256"
        },
        {
          "internalType": "address",
          "name": "_uAdd",
          "type": "address"
        },
        {
          "internalType": "uint256",
          "name": "_pKey",
          "type": "uint256"
        },
        {
          "internalType": "string",
          "name": "_certi",
          "type": "string"
        },
        {
          "internalType": "string",
          "name": "_h_rps",
          "type": "string"
        },
        {
          "internalType": "string",
          "name": "_C_t",
          "type": "string"
        },
        {
          "internalType": "uint256",
          "name": "_T_exp",
          "type": "uint256"
        },
        {
          "internalType": "bool",
          "name": "_status",
          "type": "bool"
        }
      ],
      "name": "registerRSU",
      "outputs": [],
      "stateMutability": "nonpayable",
      "type": "function"
    },
    {
      "inputs": [
        {
          "internalType": "address",
          "name": "_Add",
          "type": "address"
        },
        {
          "internalType": "uint256",
          "name": "_type",
          "type": "uint256"
        }
      ],
      "name": "checkRegistration",
      "outputs": [
        {
          "internalType": "bool",
          "name": "",
          "type": "bool"
        }
      ],
      "stateMutability": "view",
      "type": "function",
      "constant": true
    },
    {
      "inputs": [
        {
          "internalType": "address",
          "name": "_Add",
          "type": "address"
        },
        {
          "internalType": "uint256",
          "name": "_type",
          "type": "uint256"
        }
      ],
      "name": "revocationCerti",
      "outputs": [],
      "stateMutability": "nonpayable",
      "type": "function"
    }
  ],
  "bytecode": "0x608060405234801561001057600080fd5b50336000806101000a81548173ffffffffffffffffffffffffffffffffffffffff021916908373ffffffffffffffffffffffffffffffffffffffff16021790555061129c806100606000396000f3fe608060405234801561001057600080fd5b50600436106100935760003560e01c80635e492cfb116100665780635e492cfb146101255780638b8089ce14610155578063c1c0638a1461018b578063dba66058146101a7578063e15455cc146101c557610093565b80631b4f7f04146100985780632569d4fe146100cf57806329f0994c146100eb578063414ce87714610109575b600080fd5b6100b260048036038101906100ad9190610b29565b6101e3565b6040516100c6989796959493929190610c32565b60405180910390f35b6100e960048036038101906100e49190610e52565b6103f0565b005b6100f361054a565b6040516101009190610f10565b60405180910390f35b610123600480360381019061011e9190610f2b565b61056e565b005b61013f600480360381019061013a9190610f2b565b6106c5565b60405161014c9190610f6b565b60405180910390f35b61016f600480360381019061016a9190610b29565b61077f565b6040516101829796959493929190610f86565b60405180910390f35b6101a560048036038101906101a09190610ffc565b610876565b005b6101af610a08565b6040516101bc9190611106565b60405180910390f35b6101cd610a0e565b6040516101da9190611106565b60405180910390f35b60036020528060005260406000206000915090508060000154908060010160009054906101000a900473ffffffffffffffffffffffffffffffffffffffff169080600201549080600301805461023890611150565b80601f016020809104026020016040519081016040528092919081815260200182805461026490611150565b80156102b15780601f10610286576101008083540402835291602001916102b1565b820191906000526020600020905b81548152906001019060200180831161029457829003601f168201915b5050505050908060040180546102c690611150565b80601f01602080910402602001604051908101604052809291908181526020018280546102f290611150565b801561033f5780601f106103145761010080835404028352916020019161033f565b820191906000526020600020905b81548152906001019060200180831161032257829003601f168201915b50505050509080600501805461035490611150565b80601f016020809104026020016040519081016040528092919081815260200182805461038090611150565b80156103cd5780601f106103a2576101008083540402835291602001916103cd565b820191906000526020600020905b8154815290600101906020018083116103b057829003601f168201915b5050505050908060060154908060070160009054906101000a900460ff16905088565b6040518060e001604052808881526020018773ffffffffffffffffffffffffffffffffffffffff168152602001868152602001858152602001848152602001838152602001821515815250600160008873ffffffffffffffffffffffffffffffffffffffff1673ffffffffffffffffffffffffffffffffffffffff1681526020019081526020016000206000820151816000015560208201518160010160006101000a81548173ffffffffffffffffffffffffffffffffffffffff021916908373ffffffffffffffffffffffffffffffffffffffff1602179055506040820151816002015560608201518160030190805190602001906104f1929190610a14565b506080820151816004015560a0820151816005015560c08201518160060160006101000a81548160ff0219169083151502179055509050506002600081548092919061053c906111b1565b919050555050505050505050565b60008054906101000a900473ffffffffffffffffffffffffffffffffffffffff1681565b60008054906101000a900473ffffffffffffffffffffffffffffffffffffffff1673ffffffffffffffffffffffffffffffffffffffff163373ffffffffffffffffffffffffffffffffffffffff16146105fc576040517f08c379a00000000000000000000000000000000000000000000000000000000081526004016105f390611246565b60405180910390fd5b6000811415610665576000600160008473ffffffffffffffffffffffffffffffffffffffff1673ffffffffffffffffffffffffffffffffffffffff16815260200190815260200160002060060160006101000a81548160ff0219169083151502179055506106c1565b6000600360008473ffffffffffffffffffffffffffffffffffffffff1673ffffffffffffffffffffffffffffffffffffffff16815260200190815260200160002060070160006101000a81548160ff0219169083151502179055505b5050565b60008082141561072657600160008473ffffffffffffffffffffffffffffffffffffffff1673ffffffffffffffffffffffffffffffffffffffff16815260200190815260200160002060060160009054906101000a900460ff169050610779565b600360008473ffffffffffffffffffffffffffffffffffffffff1673ffffffffffffffffffffffffffffffffffffffff16815260200190815260200160002060070160009054906101000a900460ff1690505b92915050565b60016020528060005260406000206000915090508060000154908060010160009054906101000a900473ffffffffffffffffffffffffffffffffffffffff16908060020154908060030180546107d490611150565b80601f016020809104026020016040519081016040528092919081815260200182805461080090611150565b801561084d5780601f106108225761010080835404028352916020019161084d565b820191906000526020600020905b81548152906001019060200180831161083057829003601f168201915b5050505050908060040154908060050154908060060160009054906101000a900460ff16905087565b6040518061010001604052808981526020018873ffffffffffffffffffffffffffffffffffffffff168152602001878152602001868152602001858152602001848152602001838152602001821515815250600360008973ffffffffffffffffffffffffffffffffffffffff1673ffffffffffffffffffffffffffffffffffffffff1681526020019081526020016000206000820151816000015560208201518160010160006101000a81548173ffffffffffffffffffffffffffffffffffffffff021916908373ffffffffffffffffffffffffffffffffffffffff16021790555060408201518160020155606082015181600301908051906020019061097e929190610a14565b50608082015181600401908051906020019061099b929190610a14565b5060a08201518160050190805190602001906109b8929190610a14565b5060c0820151816006015560e08201518160070160006101000a81548160ff021916908315150217905550905050600460008154809291906109f9906111b1565b91905055505050505050505050565b60025481565b60045481565b828054610a2090611150565b90600052602060002090601f016020900481019282610a425760008555610a89565b82601f10610a5b57805160ff1916838001178555610a89565b82800160010185558215610a89579182015b82811115610a88578251825591602001919060010190610a6d565b5b509050610a969190610a9a565b5090565b5b80821115610ab3576000816000905550600101610a9b565b5090565b6000604051905090565b600080fd5b600080fd5b600073ffffffffffffffffffffffffffffffffffffffff82169050919050565b6000610af682610acb565b9050919050565b610b0681610aeb565b8114610b1157600080fd5b50565b600081359050610b2381610afd565b92915050565b600060208284031215610b3f57610b3e610ac1565b5b6000610b4d84828501610b14565b91505092915050565b6000819050919050565b610b6981610b56565b82525050565b610b7881610aeb565b82525050565b600081519050919050565b600082825260208201905092915050565b60005b83811015610bb8578082015181840152602081019050610b9d565b83811115610bc7576000848401525b50505050565b6000601f19601f8301169050919050565b6000610be982610b7e565b610bf38185610b89565b9350610c03818560208601610b9a565b610c0c81610bcd565b840191505092915050565b60008115159050919050565b610c2c81610c17565b82525050565b600061010082019050610c48600083018b610b60565b610c55602083018a610b6f565b610c626040830189610b60565b8181036060830152610c748188610bde565b90508181036080830152610c888187610bde565b905081810360a0830152610c9c8186610bde565b9050610cab60c0830185610b60565b610cb860e0830184610c23565b9998505050505050505050565b610cce81610b56565b8114610cd957600080fd5b50565b600081359050610ceb81610cc5565b92915050565b600080fd5b600080fd5b7f4e487b7100000000000000000000000000000000000000000000000000000000600052604160045260246000fd5b610d3382610bcd565b810181811067ffffffffffffffff82111715610d5257610d51610cfb565b5b80604052505050565b6000610d65610ab7565b9050610d718282610d2a565b919050565b600067ffffffffffffffff821115610d9157610d90610cfb565b5b610d9a82610bcd565b9050602081019050919050565b82818337600083830152505050565b6000610dc9610dc484610d76565b610d5b565b905082815260208101848484011115610de557610de4610cf6565b5b610df0848285610da7565b509392505050565b600082601f830112610e0d57610e0c610cf1565b5b8135610e1d848260208601610db6565b91505092915050565b610e2f81610c17565b8114610e3a57600080fd5b50565b600081359050610e4c81610e26565b92915050565b600080600080600080600060e0888a031215610e7157610e70610ac1565b5b6000610e7f8a828b01610cdc565b9750506020610e908a828b01610b14565b9650506040610ea18a828b01610cdc565b955050606088013567ffffffffffffffff811115610ec257610ec1610ac6565b5b610ece8a828b01610df8565b9450506080610edf8a828b01610cdc565b93505060a0610ef08a828b01610cdc565b92505060c0610f018a828b01610e3d565b91505092959891949750929550565b6000602082019050610f256000830184610b6f565b92915050565b60008060408385031215610f4257610f41610ac1565b5b6000610f5085828601610b14565b9250506020610f6185828601610cdc565b9150509250929050565b6000602082019050610f806000830184610c23565b92915050565b600060e082019050610f9b600083018a610b60565b610fa86020830189610b6f565b610fb56040830188610b60565b8181036060830152610fc78187610bde565b9050610fd66080830186610b60565b610fe360a0830185610b60565b610ff060c0830184610c23565b98975050505050505050565b600080600080600080600080610100898b03121561101d5761101c610ac1565b5b600061102b8b828c01610cdc565b985050602061103c8b828c01610b14565b975050604061104d8b828c01610cdc565b965050606089013567ffffffffffffffff81111561106e5761106d610ac6565b5b61107a8b828c01610df8565b955050608089013567ffffffffffffffff81111561109b5761109a610ac6565b5b6110a78b828c01610df8565b94505060a089013567ffffffffffffffff8111156110c8576110c7610ac6565b5b6110d48b828c01610df8565b93505060c06110e58b828c01610cdc565b92505060e06110f68b828c01610e3d565b9150509295985092959890939650565b600060208201905061111b6000830184610b60565b92915050565b7f4e487b7100000000000000000000000000000000000000000000000000000000600052602260045260246000fd5b6000600282049050600182168061116857607f821691505b6020821081141561117c5761117b611121565b5b50919050565b7f4e487b7100000000000000000000000000000000000000000000000000000000600052601160045260246000fd5b60006111bc82610b56565b91507fffffffffffffffffffffffffffffffffffffffffffffffffffffffffffffffff8214156111ef576111ee611182565b5b600182019050919050565b7f4f6e6c7920617574686f72697a656420746f2054410000000000000000000000600082015250565b6000611230601583610b89565b915061123b826111fa565b602082019050919050565b6000602082019050818103600083015261125f81611223565b905091905056fea2646970667358221220fd3bc16996e5b33e76c7738dc01150b74ebdfec70a472913c77d1674852a69c764736f6c634300080a0033",
  "immutableReferences": {},
  "source": "// SPDX-License-Identifier: GPL-3.0\npragma solidity ^0.8.0;\n\n//Registring a vehicle\n\n\ncontract v2v{\n\naddress public TA;\n//============= TA Registration\nconstructor() {\n        TA = msg.sender;\n    }\n\nmodifier onlyTA() {\n        require(msg.sender == TA, \"Only authorized to TA\");\n        _;\n    }\n\n\nstruct EV{\n    uint256 ID;\n    address uAdd;\n    uint256 pKey; //Address or public key\n    string certi; \n    uint256 NC; //Network Code\n    uint256 T_exp;//Expiry time\n    bool status; //Status of certificate\n}\n\nmapping(address=>EV) public Evs;\nuint256 public evCount;\n\n    //EVs Registration\n    function registerEV(uint256 _ID,address _uAdd, uint256 _pKey, string memory _certi, uint256 _NC, uint256 _T_exp, bool _status) public{\n        Evs[_uAdd]=EV(_ID,_uAdd, _pKey,_certi, _NC, _T_exp,_status);\n        evCount++;\n    }\n\n\nstruct RSU{\n    uint256 ID;\n    address uAdd;\n    uint256 pKey; //Address or public key\n    string certi; \n    string h_rps;//response hash of PUF\n    string C_t; //Challenege\n    uint256 T_exp;//Expiry time\n    bool status; //Status of certificate\n}\n\n//===== RSU\nmapping(address=>RSU) public Rsu;\nuint256 public rsuCount; //To count the total number of rsus\n\n\n//============= RSU\nuint rsuId;\n\nfunction registerRSU(uint256 _ID,address _uAdd, uint256 _pKey, string memory _certi, string memory _h_rps, string memory _C_t, uint256 _T_exp, bool _status) public{\n        Rsu[_uAdd]=RSU(_ID,_uAdd, _pKey,_certi, _h_rps, _C_t, _T_exp,_status);\n        rsuCount++;\n    }\n\n// //Checking Registration\nfunction checkRegistration(address _Add, uint _type) view public returns(bool){\n        if(_type==0){\n            return Evs[_Add].status;\n        }else{\n            return Rsu[_Add].status;\n        }\n}\n\n\n//=============== Certificate Revocation [ _type indicates EV or RSU]\nfunction revocationCerti(address _Add, uint _type) public onlyTA(){\n        if(_type==0){\n            Evs[_Add].status=false;\n        }else{\n            Rsu[_Add].status=false;\n        }\n}\n\n\n\n} //End of contract\n  ",
  "sourcePath": "/media/imb/NIT_PHD/Python/VoI/contracts/v2v.sol",
  "compiler": {
    "name": "solc",
    "version": "0.8.10+commit.fc410830.Emscripten.clang"
  },
  "schemaVersion": "3.4.15",
  "updatedAt": "2024-12-11T10:45:20.853Z",
  "networkType": "ethereum",
  "devdoc": {
    "kind": "dev",
    "methods": {},
    "version": 1
  },
  "userdoc": {
    "kind": "user",
    "methods": {},
    "version": 1
  }
}